:020000040800F2
:1000000000040020CF0100082D0200082F02000884
:1000100033020008370200083B020008000000001D
:100020000000000000000000000000003F02000887
:1000300041020008000000004302000845020008D9
:10004000EF010008EF010008EF010008EF010008D0
:10005000EF010008EF010008EF010008EF010008C0
:10006000EF010008EF010008EF010008EF010008B0
:10007000EF010008EF010008EF010008EF010008A0
:10008000EF010008EF010008EF010008EF01000890
:10009000EF010008EF010008EF010008EF01000880
:1000A000EF010008EF010008EF010008EF01000870
:1000B000EF0100080D030008EF010008EF01000840
:1000C000EF010008EF010008EF010008EF01000850
:1000D000EF01000875080008E1040008EF010008BE
:1000E000EF010008EF010008EF010008EF01000830
:1000F000EF010008EF010008EF010008EF01000820
:10010000EF010008EF010008EF010008EF0100080F
:10011000EF010008EF010008EF010008EF010008FF
:10012000EF010008EF010008EF010008EF010008EF
:1001300000F002F800F03AF80AA090E8000C8244BF
:100140008344AAF10107DA4501D100F02FF8AFF29C
:10015000090EBAE80F0013F0010F18BFFB1A43F0A5
:10016000010318470835000028350000103A24BF65
:1001700078C878C1FAD8520724BF30C830C144BF0C
:1001800004680C607047000000230024002500264E
:10019000103A28BF78C1FBD8520728BF30C148BFEA
:1001A0000B6070471FB51FBD10B510BD02F047FCB6
:1001B0001146FFF7F7FF00F02DF802F065FC03B4DD
:1001C000FFF7F2FF03BC02F069FC000070470B4828
:1001D00080470B4981F308880A480047FEE7FEE79D
:1001E000FEE7FEE7FEE7FEE7FEE7FEE7FEE7FEE7E7
:1001F00005480649044A064B70470000CD01000837
:1002000070040020310100087002002070040020FA
:100210007002002002F0E6FB00F078FB00F0D6FC54
:1002200000F0BEFF00F0E2FF00BFFEE7704700BF36
:10023000FEE700BFFEE700BFFEE700BFFEE7704736
:1002400070477047704701460868704730B50246EE
:100250000023D0B2642490FBF4F0C1B2D0B290FB82
:10026000F4F504FB1500C3B24FF47A7091FBF0F083
:100270000A2490FBF4F504FB15003030FE4C246892
:100280002070642091FBF0F00A2490FBF4F504FB4D
:1002900015003030F84C246860700A2091FBF0F0B3
:1002A0000A2490FBF4F504FB15003030F24C24686E
:1002B000A0700A2091FBF0F400FB14103030EE4CDB
:1002C0002468E070642093FBF0F00A2490FBF4F5BE
:1002D00004FB15003030E84C246820710A2093FBA1
:1002E000F0F00A2490FBF4F504FB15003030E24CEA
:1002F000246860710A2093FBF0F400FB1430303066
:10030000DD4C2468A071DC48006830BD70B5DB4866
:10031000008800F0010000287ED04FF6FE70D7491B
:10032000088000F08AFC6121D54801F0FEFB00BF87
:10033000D348008800F080000028F9D0D148008818
:1003400004122146CE4801F0F0FB00BFCC480088E3
:1003500000F080000028F9D0CA4804782146C84837
:1003600001F0E3FB00BFC648008800F080000028D1
:10037000F9D06221C24801F0D8FB00BFC048008814
:1003800000F080000028F9D0BF4800880412214600
:10039000BB4801F0CAFB00BFB948008800F08000EC
:1003A0000028F9D0B84804782146B54801F0BDFBD3
:1003B00000BFB348008800F080000028F9D0632116
:1003C000AF4801F0B2FB00BFAD48008800F08000EC
:1003D0000028F9D0AD48008804122146A84801F051
:1003E000A4FB00BFA648008800F080000028F9D0D8
:1003F000A64804782146A24801F097FB00BFA04818
:10040000008800F080000028F9D065219C4801F0A8
:100410008CFB00BF9A4800E061E0008800F080009B
:100420000028F7D09A49C8699A4902F0A1FF054609
:1004300002F02EFFC0F307242146914801F075FB1E
:1004400000BF8F48008800F080000028F9D0904954
:10045000C869904902F08CFF054602F019FFC4B24A
:100460002146874801F061FB00BF8548008800F005
:1004700080000028F9D06621814801F056FB00BFBA
:100480007F48008800F080000028F9D08149824828
:10049000006802F06DFF054602F0FAFEC0F3072483
:1004A0002146774801F041FB00BF7548008800F005
:1004B00080000028F9D077497748006802F058FF9B
:1004C000054602F0E5FEC4B221466D4801F02DFB61
:1004D00000BF6B48008800F080000028F9D070BD94
:1004E00070B56E48008800F02000002870D06B487E
:1004F000001D00886A4908706A480078052869D29A
:10050000DFE800F0030B173A5D0065480078FE282D
:1005100002D101206349087062E0614800781A281E
:1005200003D102205F49087002E000205D49087095
:1005300056E05D48007804280DDA02205949087019
:1005400057480178584802780078401C564B18707C
:10055000564881540FE00020534908700320514948
:1005600008704F480278504801780078401C4E4B84
:1005700018704F48425433E04C48C078642818D172
:10058000494800781A280DDA032046490870444883
:100590000178454802780078401C434B1870444865
:1005A00081540BE000204049087004203D49087048
:1005B00004E000203C4908703A49087010E001202E
:1005C0003C4908700020374908703749087007E037
:1005D00078E0FFE70020334908703349087000BF16
:1005E00000BF3448007800286CD03148007A324986
:1005F00008702F48407A48702D48807A88702C48BF
:10060000C07AC8700846FFF71EFE214908612848D5
:10061000007B294908702648407B48702448807B2D
:1006200088702348C07BC8700846FFF70CFE184945
:1006300048611F48007C204908701D48407C487074
:100640001B48807C88701A48C07CC8700846FFF739
:10065000FAFD0F49C861C86902F0BEFC04464FF0BC
:100660003332164B02F008FB02D215480849C86124
:100670000F48007D0E4926E0A8000020100400402D
:1006800000380140EC000020F0000020EE000020C7
:10069000380100200000C8429800002000440040BB
:1006A0007C0000207D0000207E0000205000002003
:1006B000180100207F000020800000203333D33F4A
:1006C0009A99993ED5E0497D40EA012000B27849E7
:1006D00048817848807D7749C97D40EA012000B291
:1006E000734988817348007E08727248407E08769C
:1006F0000846B0F90A00704908606D48B0F90C006E
:100700006E4908606A4800696D496E4A126841F88E
:100710002200674840696C496A4A126841F8220021
:1007200000206A4908606A4908606A4908601AE05E
:100730006348664A126850F822106548006802F063
:1007400077FC634908606048604A126850F82210DC
:100750006048006802F06CFC5E4908605B48006815
:10076000401C5A490860594800680528E0DB5A498E
:100770005748006802F0CAFC584908605649554875
:10078000006802F0C3FC564908605448006802F053
:1007900023FC0446534A544B02F06EFA0CD24F48E5
:1007A000006802F019FC04464E4A504B02F0F4FA7D
:1007B00002D20020494908604948006802F00CFC58
:1007C0000446484A484B02F057FA0CD244480068A5
:1007D00002F002FC0446434A444B02F0DDFA02D226
:1007E00000203F4908603D4801684148006802F028
:1007F0001FFC3F4908603A4801683E48006802F023
:1008000017FC3C4908603C493948006802F07CFE0E
:1008100003D239483649086008E03849344800684E
:1008200002F072FD02D23548314908603249314840
:10083000006802F069FE03D22F482E49086008E0E4
:100840002E492C48006802F05FFD02D22B4829494E
:1008500008601C480068052803DB0020194908606F
:1008600004E018480068401C16490860002024492C
:10087000087070BD10B52348008800F0200048B112
:100880002049091D0988C8B2312802D101211E4A18
:10089000116000BF40F227711A4801F0A9F928B190
:1008A000002240F22771174801F0E3F810BD000064
:1008B000380100201801002024000020280000201A
:1008C00058010020900000206C0100208C000020C6
:1008D00084000020880000200000A040A00000202C
:1008E000A40000207B14AE47E17A843FE17A84BF04
:1008F000980000209C00002000002041000020C142
:100900007F000020003801409400002000B587B02F
:10091000012144F20C0000F085FF0121480400F0A1
:100920008EFF4FF40070ADF8180018208DF81B00F2
:1009300003208DF81A0006A9A14800F0D7FC4FF457
:100940008060ADF8180004208DF81B0006A99C48B3
:1009500000F0CCFC4FF4E13002900020ADF80C0028
:10096000ADF80E00ADF81000ADF814000C20ADF895
:10097000120002A9934801F002F80121914801F008
:100980006CF8012240F225518E4801F072F82520C2
:100990008DF8040001208DF8050000208DF8060078
:1009A00001208DF8070001A801F05DF90420ADF8E1
:1009B000180018208DF81B0003208DF81A0006A9D6
:1009C0007F4800F093FC0820ADF8180004208DF853
:1009D0001B0006A97A4800F089FC4FF4E130029030
:1009E0000020ADF80C00ADF80E00ADF81000ADF829
:1009F00014000C20ADF8120002A9734800F0BFFFEC
:100A00000121714801F029F8012240F225516E4878
:100A100001F02FF826208DF8040001208DF8050044
:100A200000208DF8060001208DF8070001A801F0D4
:100A30001AF907B000BD70B504460D46E1B2614831
:100A400001F073F800BF5F48008800F080000028C4
:100A5000F9D0204670BDF0B503460D461646002776
:100A600029460A2E03D0002008702846F0BD33B96D
:100A7000302001F8010B002008702846F6E7002B13
:100A800003DA2D2001F8010B5B4242F210720DE0F7
:100A900093FBF2F404B937B104F1300001F8010B13
:100AA00004FB123301270A2092FBF0F2002AEFDC4C
:100AB000002008702846D9E70FB470B586B0064606
:100AC0000CA8019073E00B9800785C281CD10B985F
:100AD000401C0B9000786E2809D072280FD10D2190
:100AE000304601F022F80B98401C0B900BE00A21D5
:100AF000304601F01AF80B98401C0B9003E00B985D
:100B0000401C0B9000BF4BE00B980078252840D18B
:100B10000B98401C0B900078642818D0732833D1B0
:100B2000019810C801900BE02178304600F0FDFFDD
:100B300000BF4021304601F04FF80028F9D0641C76
:100B400020780028F0D10B98401C0B9020E00198F1
:100B500020C801900A2202A92846FFF77CFF02ACB8
:100B60000BE02178304600F0E0FF00BF4021304626
:100B700001F032F80028F9D0641C20780028F0D168
:100B80000B98401C0B9003E00B98401C0B9000BF8F
:100B900006E00B9810F8011B0B90304600F0C5FFE3
:100BA00000BF4021304601F017F80028F9D00B981B
:100BB0000078002887D106B070BC5DF814FB0000F7
:100BC000000801400038014000440040F948FA495B
:100BD0004860FA48FA4908604003FA490860FA4850
:100BE000FA4908600020FA494860FA48F449486028
:100BF000F948F4494860F948F44948600020F84948
:100C00004860F448EE498860F348EE498860F3484C
:100C1000EE498860F348EA49C860F348E949C8608A
:100C2000F248EA49C860EF48E5490861EE48E549FD
:100C30000861EE48E549086170472DE9F047EC4846
:100C40000068401CEA490860084600683C2819D141
:100C500000200860E7480068E7490860E748C06985
:100C6000E4490860DA480068D949C860E448006887
:100C7000E449C860DA480068D949C860E2480068B9
:100C8000E249C860DD4AD169CB4A506802F078FC7D
:100C9000C9490860086802F09FF904464FF03332F2
:100CA000DB4B02F079F814D8C349086802F094F9D4
:100CB00004460022134601F0DFFF0AD8D548006839
:100CC000B0F5C87F08DAD3480068401CD1490860F5
:100CD00002E00020CF490860CE480068B0F5C87F28
:100CE00007DBCD48006820B9CC480068401CCB49E0
:100CF0000860CA480068B0F57A6F02DB0120C64977
:100D00000860C5480068012812D1C2480068B0F5E3
:100D1000C87F0DDBA849486802F05EF90646C04A64
:100D2000C04B02F06FF8044601F0C0FEA2494860D3
:100D3000A149486802F050F90446B94AB94B01F09C
:100D40009BFF0AD8B3480068B0F5C87F05DB0220D6
:100D5000B14908600020B4490880B44800680128FF
:100D60001FD1954A1168906802F062F99249886033
:100D700088684FF07E5102F0C7FB04D84FF07E50D8
:100D80008D49886008E08C498868A94902F0BCFA5E
:100D900002D8A748884988604FF080408949086098
:100DA00006E00020844988604FF07E508549086045
:100DB000904801689048006802F0E2FB07468348CB
:100DC0000168384602F0D4FA05467B4A91687D4AAC
:100DD000106802F0CDFA8046774A1168784A1068A8
:100DE00002F0C6FA8146934902F022F907464146CD
:100DF00002F01EF90646294602F01AF9044602F0EE
:100E000063FA8949088008460088B0F5C86F03DD99
:100E10004FF4C860088008E083480088B0F5966FFA
:100E200003DA4FF49660804908807B480068022806
:100E300002D100207C490880654948687E490968DC
:100E400002F09EFB624908600A461168906802F051
:100E5000EFF85F4988608868784902F055FB03D84D
:100E600076485B49886008E059498868744902F00F
:100E70004BFA02D8724856498860554A1168D068C2
:100E800002F07EFB064651484168304602F070FA97
:100E900004464F4A91684B4A506802F069FA064688
:100EA0004B4A1168464A506802F062FA07463146DA
:100EB00002F0BEF80546214602F0BAF86149086022
:100EC0004F4801685F48006802F05AFB4D490860CE
:100ED0004B48006880F0004408468168204602F0D4
:100EE000A7F8484988608868544902F00DFB03D888
:100EF00052484449886008E042498868504902F0F5
:100F000003FA02D84E483F4988603E49C8683C49C8
:100F1000096802F035FB80462C48C168404602F063
:100F200027FA0746374A9168264AD06802F020FA25
:100F30008046344A1168224AD06802F019FA814684
:100F4000414602F075F80646394602F071F805464A
:100F50003D4902F00AFB044602F0B6F93B4908801D
:100F600008460088B0F5C86F03DD4FF4C8600880FC
:100F700008E036480088B0F5966F03DA4FF49660C3
:100F800032490880164948683149096802F0F8FA80
:100F9000134908600A461168906802F049F8104940
:100FA00088608868254902F0AFFA53D823480C4975
:100FB000886058E0CDCC8C3F800100200000AA4220
:100FC000D0010020E40100200080D343F80100207C
:100FD000900100208FC2F53C0AD7233CCDCCCC3DFC
:100FE000A0010020000048420000604000000C44C6
:100FF000AC000020B8000020BC0000203801002018
:10100000A0000020B0010020A4000020C0010020AA
:101010003333D3BFFC000020E80000200001002093
:101020009A9999999999B93FEC000020E400002021
:10103000000080BF00C0B94498000020000020419B
:10104000000020C1F40000200060C244F000002035
:101050009C00002047498868474902F055F902D8AA
:10106000454844498860434A1168D06802F088FACC
:10107000064642488168304602F07AF904463D4A05
:1010800091683F4A906802F073F90646394A116840
:101090003C4A906802F06CF90746314601F0C8FFFF
:1010A0000546214601F0C4FF37490860374801680A
:1010B0003548006802F064FA354908603348006832
:1010C00080F0004408468168204601F0B1FF3049B5
:1010D000886088682F4902F017FA03D82D482C49F8
:1010E000886008E02A498868234902F00DF902D88F
:1010F0002148274988602649C8682449096802F0C0
:101100003FFA80461D480169404602F031F9074622
:101110001F4A91681A4A106902F02AF980461C4A4F
:101120001168184A106902F023F98146414601F01E
:101130007FFF0446394601F07BFF0646164901F061
:1011400077FF054602F0C0F8144908800846008879
:10115000B0F5C86F03DD4FF4C860088008E00F48A1
:101160000088B0F5966F03DA4FF496600B4908805B
:10117000BDE8F087A0010020000020C1F801002098
:10118000E4010020D0010020F8000020A40000208D
:10119000C0010020000020410020B744EE000020E4
:1011A0000EB50121022000F04AFB1B4800F0C4FDEF
:1011B0004FF4FA60ADF804004720ADF800000020BD
:1011C000ADF80600ADF802006946134800F01FFEB6
:1011D0000121114801F07CFB012211460E4801F06B
:1011E000B7F801210C4801F098F80EBD08B54FF48E
:1011F000A06000F033FD1D208DF8000002208DF866
:10120000010000208DF8020001208DF803006846DF
:1012100000F029FD08BD00000004004010B50446A0
:10122000C649601A8C422FD009DCC548204480B1E1
:10123000B0F5806F16D0B0F5006F4AD11BE0B0F565
:10124000806F2AD0B0F5006F30D0B0F5406F40D13C
:1012500035E00121042000F0FFFA0021042000F015
:10126000FBFA37E00121082000F0F6FA00210820FF
:1012700000F0F2FA2EE00121102000F0EDFA00213A
:10128000102000F0E9FA25E00121202000F0E4FA26
:101290000021202000F0E0FA1CE00121402000F0B5
:1012A000DBFA0021402000F0D7FA13E00121802072
:1012B00000F0D2FA0021802000F0CEFA0AE00121ED
:1012C000080200F0C9FA00214FF4807000F0C4FA5F
:1012D00000E000BF00BF10BD10B50121084600F0BE
:1012E000BBFA0021012000F0B7FA10BD2DE9F04152
:1012F000024600250026002000230024002791F844
:1013000003C00CF00F0591F803C00CF0100CBCF1F9
:10131000000F03D091F802C04CEA050591F800C017
:10132000BCF1000F31D0146800202BE04FF0010C0D
:101330000CFA00F3B1F800C00CEA03069E4220D17B
:1013400083004FF00F0C0CFA03F7BC4305FA03FCC3
:101350004CEA040491F803C0BCF1280F06D14FF009
:10136000010C0CFA00FCC2F814C00AE091F803C0AA
:10137000BCF1480F05D14FF0010C0CFA00FCC2F88B
:1013800010C0401C0828D1D31460B1F800C0BCF1D3
:10139000FF0F34DD546800202EE000F1080C4FF000
:1013A000010808FA0CF3B1F800C00CEA03069E42EB
:1013B00021D183004FF00F0C0CFA03F7BC4305FA60
:1013C00003FC4CEA040491F803C0BCF1280F05D1DA
:1013D00000F1080C08FA0CF8C2F8148091F803C068
:1013E000BCF1480F07D100F1080C4FF0010808FAD2
:1013F0000CF8C2F81080401C0828CED35460BDE819
:10140000F0814FF6FF710180022181700421C170CB
:1014100070470246002093680B400BB1012000E0AA
:10142000002070470146886880B27047024600205D
:10143000D3680B400BB1012000E00020704701464B
:10144000C86880B2704701617047416170470AB156
:10145000016100E041617047C16070474FF4803224
:101460000A438261816182618269826970470246B2
:101470000020344B18684FF68073184040EA021081
:101480000843304B186070472F49C8617047F0B56A
:101490000A4600230024002100252A4E7168C0F36B
:1014A000034583B200F44016B6F5401F08D121F081
:1014B0007061244E766826F07066224F7E6012E0DE
:1014C00000F48016B6F5801F06D1032606FA05F44F
:1014D000A14341F0706106E0460D360103FA06F6BD
:1014E000B14341F0706122B1460D360103FA06F6B0
:1014F0003143144E7160F0BD30B500228B071C0FD4
:101500000F2303FA04F20F4B08338C1053F82430E6
:1015100093430C4C08348D1044F8253023468C102E
:1015200053F824308C07240F00FA04F42343054CAD
:1015300008348D1044F8253030BD000000140140FF
:1015400000F8FEBF0000014000002042DE480068B5
:1015500040F00100DC49086008464068DB4908406B
:10156000D949486008460068D9490840D64908600A
:101570000846006820F4802008600846406820F48F
:10158000FE004860002088607047CF49096821F458
:101590008031CD4A11601146096821F48021116023
:1015A000B0F5803F03D0B0F5802F0ED106E0C649DC
:1015B000096841F48031C44A116007E0C2490968F2
:1015C00041F4A021C04A116000E000BF00BF704795
:1015D00010B501460022002300204A11012A02D141
:1015E000B94C236806E0022A02D1B74C236A01E015
:1015F000B54C636A01F01F02012494401C400CB1F9
:10160000012000E0002010BD38B50020009000242B
:10161000002500BF3120FFF7DBFF05460098401C86
:1016200000901DB90098B0F5A06FF3D13120FFF7FD
:10163000CFFF08B1012400E00024204638BD014658
:101640000020A14A106820F0F80040EAC1001060B4
:101650007047A04908607047024600209A4B5868BE
:1016600020F47C1042EA01031843974B58607047FE
:1016700098490866704701460020934A506820F058
:1016800003000843506070478F48406800F00C002A
:101690007047014600208C4A506820F0F000084353
:1016A0005060704701460020874A506820F4E0608F
:1016B00008435060704701460020834A506820F478
:1016C000605040EAC1005060704729B17E4A527AAA
:1016D00002437D4B5A7204E07B4A527A82437A4B32
:1016E0005A7270477B49D831086070470146002024
:1016F000754A506820F4404008435060704700210C
:10170000714A20321170704A82F82010012802D0EC
:1017100004280AD104E001216B4A2032117005E04F
:101720000521694A2032117000E000BF00BF7047F8
:101730006949086070476449096A0143624A116255
:101740007047654944390860704730B50021002270
:10175000002400235C4D6D6805F00C0121B10429C3
:1017600005D0082923D105E05C4D056022E05B4DE2
:1017700005601FE0544D6D6805F47012022505EBFD
:101780009242514D6D6805F480341CB9544D554357
:1017900005600BE04C4D6D6805F400351DB1504DF2
:1017A0005543056002E04D4D5543056002E04B4D49
:1017B000056000BF00BF444D6D6805F0F0010909E8
:1017C000484D6B5C0568DD4045603F4D6D6805F434
:1017D000E061090A434D6B5C4568DD4085603A4D28
:1017E0006D6805F46051C90A3E4D6B5C4568DD408B
:1017F000C560354D6D6805F44041890B3A4D6B5C11
:10180000C568B5FBF3F5056130BD29B12E4A5269B3
:1018100002432D4B5A6104E02B4A526982432A4B02
:101820005A61704729B1284A92690243264B9A614E
:1018300004E0254A92698243234B9A61704729B19B
:10184000214AD2690243204BDA6104E01E4AD26980
:1018500082431D4BDA61704729B11B4AD2680243AB
:10186000194BDA6004E0184AD2688243164BDA60FA
:10187000704729B1144A12690243134B1A6104E0FC
:10188000114A12698243104B1A617047124940395C
:10189000086070470F49C86470470B49C8717047AA
:1018A0000948406A40F08070074948627047014625
:1018B0000020054A92680A400AB1012000E0002099
:1018C0007047014988727047001002400000FFF81D
:1018D000FFFFF6FE000042428004424200127A00FE
:1018E00000093D00040100201401002010B5044649
:1018F000D749601A8C422BD006DCD648204498B1D8
:10190000B0F5806F38D119E0B0F5806F2AD0B0F50E
:101910006C4F31D101218803FFF79EFF00214FF466
:101920008040FFF799FF28E001214804FFF7A1FF5D
:1019300000214FF40030FFF79CFF1EE001218804D6
:10194000FFF797FF00214FF48020FFF792FF14E08C
:101950000121C804FFF78DFF00214FF40020FFF79D
:1019600088FF0AE001210805FFF783FF00214FF4FB
:101970008010FFF77EFF00E000BF00BF10BD2DE923
:10198000F04786B005460E460024A24600BF00BFC1
:1019900000272F462C8A4CF6FF700440F088044341
:1019A0002C82AC894EF6F3100440B088318908438C
:1019B000718908430443AC81AC8A4FF6FF40044070
:1019C000B0890443AC8201A8FFF7BFFEA24887425A
:1019D00002D1DDF810A001E0DDF80CA00AEBCA008E
:1019E00000EB0A1031688900B0FBF1F86420B8FB05
:1019F000F0F004012009642101FB1089322000EB82
:101A00000910B0FBF1F000F00F0004432C8106B088
:101A1000BDE8F0874FF41651016000218180C1803C
:101A200001810C21418100218181704710B502465E
:101A30000020108A4FF2FF0318400B884C88234384
:101A40008C882343CC8823431843108210BD002187
:101A5000018041808180C180704721B1828942F438
:101A60000052828104E082894DF6FF731A40828120
:101A70007047F0B5034600240026002500201846D4
:101A8000C1F3421401F01F06012707FA06F5012CE5
:101A900001D10C3004E0022C01D1103000E01430F0
:101AA0001AB107682F43076002E00768AF43076079
:101AB000F0BD1AB1838A0B43838202E0838A8B4391
:101AC00083827047028A4FF6F0731A400282028ABC
:101AD0000A430282704782894FF2FF731A40828163
:101AE00082890A438281704721B1828942F00202D1
:101AF000828104E082894FF6FD731A40828170472B
:101B0000028A4FF6DF731A400282028A0A43028277
:101B1000704721B1028A42F48042028204E0028AC4
:101B20004BF6FF731A4002827047C1F308028280AD
:101B3000704701468888C0F308007047818941F0EA
:101B4000010181817047028BD2B20283028B42EA8B
:101B5000012202837047028B02F47F420283028BD0
:101B60000A430283704721B1828A42F020028282B6
:101B700004E0828A4FF6DF731A408282704721B1F7
:101B8000828A42F01002828204E0828A4FF6EF736A
:101B90001A408282704721B1828A42F00802828212
:101BA00004E0828A4FF6F7731A4082827047828A75
:101BB0004FF6FB731A408282828A0A438282704700
:101BC00021B1828A42F00202828204E0828A4FF6C8
:101BD000FD731A40828270470246002013880B4032
:101BE0000BB1012000E000207047CA43028070471B
:101BF00070B502460B460024002100250020C3F3E7
:101C0000421503F01F01012606FA01F1012D02D150
:101C10009689314006E0022D02D1168A314001E05A
:101C2000968A31401C12012606FA04F416883440C4
:101C300011B10CB1012000E0002070BD10B50022F0
:101C400000230A1201249440A3B2DC43048010BD97
:101C5000004C004000BCFFBF003801403149014347
:101C6000314A1160704770B5002100230F22C478FB
:101C700004B32D4C246804F4E064C4F5E064210A44
:101C8000C1F10403CA40447804FA03F18478144093
:101C900021430901254C0678A155047804F01F055D
:101CA0000124AC4005786D11AD0005F1E025C5F8C3
:101CB000004109E0047804F01F050124AC401C4DEC
:101CC0000678761145F8264070BD1A4A0A4002434C
:101CD000154B1B1F1A60704739B1134A121D126849
:101CE0000243114B1B1D1A6006E00F4A121D1268B9
:101CF00082430D4B1B1D1A607047042808D14FF01A
:101D0000E021096941F004014FF0E022116107E090
:101D10004FF0E021096921F004014FF0E022116148
:101D2000704700000000FA050CED00E000E400E060
:101D300080E100E080FFFF1F10B50446F749601AFC
:101D40008C4245D00CDCB4F1804F1DD0F4482044C7
:101D500018B3B0F5806F29D0B0F5006F54D12EE0E4
:101D6000B0F5806F3DD0B0F58E3F03D0B0F5923F17
:101D70004AD13FE00121C802FFF76EFD00214FF478
:101D80000060FFF769FD40E001210846FFF771FDA3
:101D900000210120FFF76DFD37E001210220FFF750
:101DA00068FD00210220FFF764FD2EE001210420E0
:101DB000FFF75FFD00210420FFF75BFD25E0012117
:101DC0000820FFF756FD00210820FFF752FD1CE018
:101DD00001211020FFF74DFD00211020FFF749FDE4
:101DE00013E001212020FFF744FD00212020FFF710
:101DF00040FD0AE001214803FFF72EFD00214FF4CA
:101E00000050FFF729FD00E000BF00BF10BD0288B1
:101E100002F08F020280CA884B881A4303881A4353
:101E200002808A8882850A880285BE4A904202D052
:101E3000BD4A904201D10A7A02860122828270470D
:101E400070B5002400220023058C4FF6FE76354045
:101E50000584028C8388048B4FF68F752C400D8887
:101E60002C43751E2A400D892A434D882A43CD886C
:101E70008586AC4DA84202D0AB4DA84213D14FF697
:101E8000F7752A404D892A434FF6FB752A408D8805
:101E90002A4347F6FF652B4047F6FF552B408D89B7
:101EA0002B43CD892B4383800483028470BD70B59E
:101EB000002400220023058C4FF6EF763540058480
:101EC000028C8388048B48F6FF752C400D884FF6F2
:101ED000FF7606EA05252C434FF6DF752A400D896B
:101EE00006EA05152A434D8806EA05152A43CD88DA
:101EF00005878C4DA84202D08B4DA8421DD14FF6CC
:101F00007F752A404D894FF6FF7606EA05152A436C
:101F10004FF6BF752A408D8806EA05152A4347F615
:101F2000FF352B4047F2FF752B408D8906EA85056A
:101F30002B43CD8906EA85052B43838004830284E5
:101F400070BD70B5002400220023058C4FF6FF669B
:101F500035400584028C8388848B4FF68F752C4026
:101F60000D882C434FF6FF552A400D894FF6FF761A
:101F700006EA05252A434D8806EA05252A43CD8829
:101F80008587684DA84202D0674DA8421DD14FF207
:101F9000FF752A404D894FF6FF7606EA05252A434C
:101FA0004FF6FF352A408D8806EA05252A4346F676
:101FB000FF752B4045F6FF752B408D8906EA051508
:101FC0002B43CD8906EA05152B4383808483028445
:101FD00070BD70B5002400220023058C4EF6FF76FC
:101FE00035400584028C8388848B48F6FF752C402D
:101FF0000D884FF6FF7606EA05252C434DF6FF7552
:102000002A400D8906EA05352A434D8806EA05353A
:102010002A43CD88A0F84050424DA84202D0424DFC
:10202000A84207D1C3F30D038D894FF6FF7606EA68
:1020300085152B4383808483028470BD828B4FF28D
:10204000FF331A408283828B4FF6FF7303EA01232A
:102050001A4382837047F0B50C46154600210022D2
:102060000026078C4EF6FF7C07EA0C070784818B5D
:10207000028C4FF6FF7707EA043640F6FF473940F7
:102080004FF6FF7707EA05274FF6FF7C0CEA033C83
:1020900047EA0C0739434DF6FF773A4046F480573C
:1020A0003A4381830284F0BD828B4FF6F3731A406A
:1020B0008283828B0A4382837047F0B50C461546B3
:1020C000002100220026078C4FF6FF6C07EA0C0760
:1020D0000784818B028C4FF6FF7707EA04264FF6C0
:1020E0000C7739404FF6FF7707EA03172F43394340
:1020F0004FF6FF573A4046F480773A438183028493
:10210000F0BD028B4FF2FF331A400283028B4FF671
:10211000FF7303EA01231A43028370470010004053
:1021200000FCFFBF002C014000340140F0B50C461C
:102130001546002100220026078C4FF6EF7C07EAA7
:102140000C070784018B028C4FF6FF7707EA041611
:1021500040F6FF4739404FF6FF7707EA0337394328
:102160004FF6FF7707EA052739434FF6DF773A4006
:1021700046F010073A4301830284F0BD028B4FF60C
:10218000F3731A400283028B0A4302837047F0B54F
:102190000C46154600210022068C4FF6FE773E4085
:1021A0000684018B028C4FF60C7631407E1C06EAC9
:1021B00003162E4331437E1E324044F00106324363
:1021C00001830284F0BD70B505460C46208850B9E5
:1021D0002389A28861882846FFF7D9FFE18828462D
:1021E000FFF7CCFF25E0208804280AD12389A288A4
:1021F00061882846FFF79AFFE1882846FFF781FFAC
:1022000017E0208808280AD12389A28861882846F7
:10221000FFF753FFE1882846FFF746FF09E02389CF
:10222000A28861882846FFF716FFE1882846FFF755
:1022300005FF70BD2DE9F04105460C46002601273B
:10224000608808B9022600E00026A088012801D194
:10225000022700E001272088A0B92389A28861888D
:102260002846FFF794FFE1882846FFF787FF238978
:102270003A4631462846FFF759FFE1882846FFF7DE
:1022800040FF13E02389A28861882846FFF74EFFAC
:10229000E1882846FFF735FF23893A46314628462C
:1022A000FFF775FFE1882846FFF768FFBDE8F0817A
:1022B0000A884B881A438B881A43CB881A430B89A8
:1022C0001A434B891A438B891A43A0F8442070475C
:1022D0004FF6FF71818000210180C1804180017231
:1022E00070470021018041808180C180018141814E
:1022F0008181C1817047002101804180012181805D
:102300000021C180018170470021018041808180CE
:10231000C180018141818181704721B1028842F0F1
:102320000102028004E0028840F2FE331A4002807B
:10233000704731B1B0F8442042F40042A0F8442084
:1023400005E0B0F84420C2F30E02A0F84420704724
:102350001AB183890B43838102E083898B43838194
:1023600070478182704741EA0203A0F84830704705
:102370001AB183890B43838102E083898B43838174
:10238000704701894FF6F8721140018170470A4683
:10239000002101894FF68F73194011430181704765
:1023A00030B504460D4629462046FFF7F0FF208948
:1023B00040F00700208130BD2DE9F04104460D4674
:1023C00016461F46602D06D13B4601223146204667
:1023D000FFF7ACFE05E03B46012231462046FFF701
:1023E000D6FE29462046FFF7D2FF208940F007009D
:1023F0002081BDE8F08170B50C4600210189C9B289
:1024000044EA02054FF6FF7606EA032635432943E0
:10241000018170BD2DE9F04105460E4617469846EC
:10242000002443463A4631462846FFF7E4FF2C890C
:102430004FF6F870044044F007044FF68F700440E4
:1024400044F070042C81BDE8F081F0B504460D46DF
:1024500016461F463B46324629462046FFF7CBFF2D
:10246000208940F480402081F0BD01858282704740
:102470000A460021018840F28F3319401143018040
:102480007047F0B50C4615461E4600210022002379
:102490000189028B038C4FF6F877394021434FF6C0
:1024A000FC473A4040F201173A434FF6DD773B4094
:1024B0004FF6FF7707EA06172F433B43018102835C
:1024C0000384F0BD0A460021018B4FF68F7319403B
:1024D0001143018370470A460021018B48F6FF73C0
:1024E00019404FF6FF7303EA022319430183704733
:1024F0000A460021818B4FF68F7319401143818367
:1025000070470A460021818B48F6FF7319404FF649
:10251000FF7303EA022319438183704721B10288C4
:1025200042F08002028004E0028840F27F331A40C9
:102530000280704721B1828842F00402828004E068
:1025400082884FF6FB731A408280704721B18288DF
:1025500042F00802828004E082884FF6F7731A4046
:102560008280704721B1828842F00102828004E0BB
:1025700082884FF6FE731A40828070470A46002117
:10258000018B4FF6F77319401143018370470A46D8
:102590000021018B4FF2FF7319404FF6FF7303EADE
:1025A00002231943018370470A460021818B4FF6AD
:1025B000F77319401143818370470A460021818BCC
:1025C0004FF2FF7319404FF6FF7303EA02231943DA
:1025D000818370470A460021018B4FF6FB73194037
:1025E0001143018370470A460021018B4FF6FF33E8
:1025F00019404FF6FF7303EA022319430183704722
:102600000A460021818B4FF6FB73194011438183E9
:1026100070470A460021818B4FF6FF3319404FF671
:10262000FF7303EA02231943818370470A4600219E
:10263000018B4FF67F7319401143018370470A469F
:102640000021018BC1F30E014FF6FF7303EA022351
:102650001943018370470A460021818B4FF67F732F
:1026600019401143818370470A460021818BC1F3D1
:102670000E014FF6FF7303EA02231943818370476B
:102680000A460021018C4FF6FD7319401143018465
:1026900070470A460021018C4FF6F7731940114329
:1026A000018470470A460021018C4FF6DF73194000
:1026B0004FF6FF7303EA02131943018470470A4679
:1026C0000021018C4FF67F7319404FF6FF7303EA28
:1026D00002131943018470470A460021018C4FF60A
:1026E000FF5319404FF6FF7303EA02231943018495
:1026F00070470A460021018C4FF2FF7319404FF6D4
:10270000FF7303EA02231943018470470A4600213C
:10271000018C4DF6FF7319404FF6FF7303EA023345
:1027200019430184704710B5038C01248C40A343E6
:102730000384038C02FA01F4A4B22343038410BD82
:1027400010B5038C04248C40A3430384038C02FA49
:1027500001F4A4B22343038410BD30B5038C0124DB
:102760008C40A343038409B1082918D100F1180350
:1027700003EB61031B684FF68F74234000F11804CC
:1027800004EB6104236000F1180303EB61031B6891
:10279000134300F1180404EB610423601FE00B1FD6
:1027A000C3F34E0400F118031B5948F6FF7423408D
:1027B0000C1FC4F34E0500F1180463510B1FC3F343
:1027C0004E0400F118031B594FF6FF7404EA02246B
:1027D00023430C1FC4F34E0500F11804635130BDB0
:1027E00021B1028842F00202028004E0028840F235
:1027F000FD331A400280704721B1028842F0040282
:10280000028004E0028840F2FB331A4002807047E5
:1028100021B1828842F08002828004E082884FF6F3
:102820007F731A4082807047028840F2F7331A4063
:10283000028002880A430280704782884FF68F73B5
:102840001A40828082880A438280704702894FF64C
:10285000F8731A40028102890A4302817047028993
:102860004FF67F731A40028102890A430281704742
:1028700081847047818570478186704701877047E2
:1028800081877047A0F8401070470288D2B202805A
:1028900002880A43028070470146888E70470146CD
:1028A000088F70470146888F70470146B1F8400095
:1028B00070470146888C70470146088D7047024674
:1028C0000020138A0B400BB1012000E0002070476C
:1028D000CA430282704730B502460020002300241C
:1028E000158A05EA0103958905EA010413B10CB1C3
:1028F000012000E0002030BDCA4302827047000082
:102900000CB50020019000904748006840F48030EA
:102910004549086000BF4448006800F4003000905A
:102920000198401C0190009818B90198B0F5A06F6B
:10293000F1D13D48006800F4003010B10120009052
:1029400001E0002000900098012844D13748006839
:1029500040F01000354908600846006820F0030088
:1029600008600846006840F0020008602E48406891
:102970002D4948600846406848600846406840F471
:10298000806048600846406820F47C104860084633
:10299000406840F4E81048600846006840F08070E5
:1029A000086000BF2048006800F000700028F9D0DF
:1029B0001D48406820F003001B49486008464068F5
:1029C00040F00200486000BF1748406800F00C006B
:1029D0000828F9D101E000BFFEE70CBD10B5FFF7F4
:1029E0008FFF10BD10B51048006840F001000E497F
:1029F0000860084640680E4908400B494860084690
:102A000000680C490840084908600846006820F43E
:102A1000802008600846406820F4FE0048600020DE
:102A20008860FFF7DBFF10BD00100240002002406D
:102A30000000FFF8FFFFF6FE7047704770477546CD
:102A400000F028F8AE4605006946534620F007001E
:102A5000854618B020B5FDF7CBFBBDE820404FF010
:102A600000064FF000074FF000084FF0000B21F078
:102A70000701AC46ACE8C009ACE8C009ACE8C00945
:102A8000ACE8C0098D4670470446AFF3008020468D
:102A9000FDF795FB004870470C0200200149182003
:102AA000ABBEFEE7260002007047000021F00042A6
:102AB000A2F16052B2F5801F01F0004328BFD2F1AD
:102AC0007F6C0BD95FEA001C43EAC20242EB5070F4
:102AD00018BF704728BF20F001007047B2F5801F73
:102AE000BCBF184670474FEA410C1CF5001F02D2CC
:102AF000084600F004BD70B500F0FAF80000008947
:102B0000FFF7F6BF4FF00040A0F5800070470000CF
:102B100010B591EA030F48BF83F0004300F17A81BA
:102B2000841A71EB030C05D2121943EB0C03001B42
:102B300061EB0C01DFF824E14FEA1154A4EB135CC4
:102B40001EEA430F18BF9EEA445F73D023EA0E03C8
:102B5000DCF1200E21EA045143F4801332D322FA2F
:102B60000CFE10EB0E0023FA0CFE41EB0E01CCF133
:102B7000200E03FA0EFE10EB0E0051F10001B1F52C
:102B8000801FCCF1200E32D201EB045112FA0EF26A
:102B9000BDE8104058BF7047401C38BF5FEA420292
:102BA00018BF7047002814BF20F0010041F1000158
:102BB0004FEA410313F5001F38BF7047A1F1C04130
:102BC00000F0E4B8012A43EB0302ACF1200CDCF185
:102BD0001F0E32BF4FF0000E23FA0CF310EB030070
:102BE00041EB0451B4EB115FD0D0A1EB045101F5DE
:102BF000801149085FEA300001EB04510ED350F117
:102C0000000038BF12FA0EFE08D1BDE81040C9E737
:102C1000401C38BF5FEA4202CAD1C3E7BDE810409A
:102C20004FEA410313F5001F38BF7047A1F1C041BF
:102C300000F0ACB89EEA445F08D011EA5E0FBDE830
:102C4000104004BF01F0004100207047BDE8104073
:102C500070B500F04DF800BF64FBBE3E0000E0FF21
:102C6000491058BFC1F140415B1058BFC3F1404308
:102C70008B42EFF30080704751EA030C17D41CF528
:102C8000801F58BFBCF5801F00F10680994218BF15
:102C9000704708BF9042704707D711F5801F58BF93
:102CA00013F5801F19D499427047894270471CF56B
:102CB000801F08D5BCF5801FF7D58B4218BF704721
:102CC00008BF824270474FF4001C1CEB410F38BF15
:102CD0001CEB430F01D28B42704770B500F008F82F
:102CE000922449004FF000514FF08053FFF7B8BFD6
:102CF0000EF1020E2EF0030E5EF8046B364205D480
:102D0000012A43EB030515F5001F12D8012841EBFA
:102D1000010C1CF5001F0CD80ED14FEAD17C15F523
:102D2000001F0CEB4C0C0CF1020C08BF4CEBD37CDD
:102D300004E04FF0080C01E04FEAD37C0CEB4C05AB
:102D400026FA05F606F00706B6F1040C06D20EEBDD
:102D5000860CBDE870404CF0010C6047DFE80CF0D9
:102D6000090B02024FF000414FF00000A1F50021D5
:102D700070BD19461046012851EB010418BFD4F567
:102D8000001484BF002001F0004170BD0808A0F5C8
:102D900000114FEA3101704753EA010C17D41CF5BA
:102DA000801F58BFBCF5801F00F106808B4218BF02
:102DB000704708BF8242704707D713F5801F58BF7E
:102DC00011F5801F19D48B4270479B4270471CF548
:102DD000801F08D5BCF5801FF7D5994218BF7047F2
:102DE00008BF904270474FF4001C1CEB430F38BFE4
:102DF0001CEB410F01D2994270470FB40CBC03BCCD
:102E0000FFF76BBF10B591EA030F48BF83F0004393
:102E10003FF586AE841A71EB030C07D212198CF0C1
:102E2000004C43EB0C03001B61EB0C01DFF8A4E149
:102E30004FEA1154A4EB135C1EEA430F18BF9EEA3D
:102E4000445F00F0B08023EA6E03524221EA04514D
:102E5000C3EB6E0338BF5B1EDCF1200E25D322FAD4
:102E60000CFE10EB0E0043FA0CFE41EB0E01CCF110
:102E7000200E03FA0EFE10EB0E0051F10001CCF112
:102E8000200E29D412FA0EF201EB0451BDE81040D5
:102E900058BF7047401C1CBFB2F1004F704700285C
:102EA0000CBF491C20F00100704712EB020E43EBEF
:102EB000030218BF4FF0010E4EEA4202ACF1200CA3
:102EC000DCF11E0E54D943FA0CFE10EB0E0051F14A
:102ED000FF31CCF11E0ED5D50EF1010E12FA0EFE09
:102EE000404141EB010101EB445C5FEA5C5C10D9BD
:102EF00010EBDE7001EB045138BFBEF1004FBDE8AE
:102F0000104018BF704700280CBF491C20F001007A
:102F1000704730D24FEAD42C11F5001124F400642C
:102F20001BD0B1FA81F20B3AA41AA41ED2F12003ED
:102F3000914030FA03F31943904001EBCC71002C1F
:102F400001EB0451BDE81040A8BF704701F1C0413A
:102F50004FF0000001F000417047B0FA80F310FA22
:102F600003F100D110BDE41A173C4805C90AE4E793
:102F700001EB045110BD491001EB0451BDE81040B4
:102F80004FEA300002E04FF0000170474A0008BFEE
:102F90000042F8D0B2F5001F28BF704701F0004191
:102FA0004FF0000070479EEA445F07D011EA5E0FC1
:102FB000BDE8104004BF002100207047BDE810406C
:102FC00070B5FFF795FE00BF40DFF63E83F000418D
:102FD000104670470000E0FF43004FEAD30C4FEA71
:102FE0003C0C43401FBF40070CF1605113F0FE4FF3
:102FF00070471CF0006F03D100200CF000417047B7
:103000000CF0004343EA507010B540EACC0000F0E9
:1030100030FA00BF000000924FEA0001FFF7B6BE91
:103020004FF000414FF00000A1F500217047000073
:1030300090EA010F48BF81F0004100F1A882421AD6
:103040003CBF801A89184FEAD0524FF07F4C1CEADF
:10305000410FA2EBD15318BF9CEA026F00F03B80F6
:103060004FF0004C4CEA00204CEA012121FA03FC0D
:1030700010EB0C0C1ED202F1FF325FEA1C2040EB79
:10308000C25038BF70471CF07F0F4FEA400C18BF8A
:10309000BCF17F4F38BF7047C3F12003994008BF90
:1030A00020F00100BCF17F4F38BF7047A0F1C04055
:1030B00000F025BA4FEA3C00000A40EBC25028BF9E
:1030C0001CF0FF0F4FEA400CE6D018BFBCF17F4F59
:1030D00038BF7047EAE79CEA026F05D010EA5C0F40
:1030E00008BF00F00040704710B500F0C2F900BF03
:1030F00064FBBE3E401058BFC0F14040491058BF6D
:10310000C1F140418142EFF3008070474FF47F0CE2
:103110001CEAD0121EBF1CEAD11392EA0C0F93EAEC
:103120000C0F00F0858090EA010F48BF42F48072D6
:1031300040F4000C41F400002CF07F4120F07F406F
:1031400000B58142A2EB03020FF2081CACEB504E1B
:10315000C0F100009EF800E04FEA4E0E00FB0EFCAE
:1031600038BF49004FEA2C1C02F5FA020CFB0EF3A3
:103170004FEACE1E4FEA112C4FEAC1210EEB635EDF
:1031800042EB22420EFB0CFC4FEA1C5300FB0311E6
:103190004FEA112C4FEA01310EFB0CFC4FEADC4CDC
:1031A00000FB0C11C14228BF09184CEB03335DF83A
:1031B00004EB10EB410143EBC250B2F57C0F38BF7A
:1031C000704729D512F0F00F1CBF00F1C04000F08D
:1031D00000407047008182838485868788898B8C34
:1031E0008D8E8F919293959697999A9C9D9FA0A270
:1031F000A3A5A7A8AAACAEB0B2B3B5B7B9BCBEC0C0
:10320000C2C5C7C9CCCED1D4D7D9DCDFE2E6E9EC60
:10321000F0F3F7FAFE0000004FEA400C0CF1807C5E
:10322000BCF17E4F28BF7047B0F1C04000F067B9D5
:1032300090EA010F0CEAD11348BF42F48072624554
:1032400038BF634507D213F47F0F16D080EA010020
:1032500000F00040704710B500F00BF9097EFC3E0D
:1032600000F005B880EA010000F00040704780EAF5
:10327000010000F0004000F042B912F47F0F04BFDB
:103280000248704780EA010000F039B90000C07FB1
:1032900041000B0ED3F19E0208D950F400034FEA0F
:1032A000032323FA02F048BF4042704710B500F0F4
:1032B000E0F800BF49922480002070476FF0004280
:1032C00082EA200070470000C10DD1F19E0206DBAA
:1032D0004FEA002343F0004323FA02F07047004214
:1032E00007D54FEA4001B1F1FE4F02D24FF0000086
:1032F000704710B500F0BDF8499224800020704757
:103300006FEA20007047000050EA010C00F11380C2
:103310001CF5000F58BFBCF5000F01D48842704760
:1033200007D710F5000F58BF11F5000F15D48842CC
:103330007047894270471CF5000F04D5BCF5000F9B
:10334000F7D5814270474FF0807C1CEB400F38BFAF
:103350001CEB410F01D28142704710B500F089F893
:10336000922449004FF000504FF08051FFF7C2BE49
:103370004FF47F0C1CEAD0121EBF1CEAD11392EA54
:103380000C0F93EA0C0F00F0478090EA010F48BF42
:1033900042F480724FF0004C4CEA00204CEA0121CC
:1033A00002EB0302A0FB0113A2F50002002918BFE3
:1033B00043F001035B0028BF4FEA330342EB224294
:1033C0005FEA132C4CEBC2502EBFBCEB436FB2F53F
:1033D0007C0F70474FEA036CBCF1004F08BF20F030
:1033E0000100B2F57C0F38BF70470BD582F0FF02A9
:1033F00012F5803FC8BF704700F1C040D8BF00F051
:103400000040704700F5000C5FEA4C0C48BF704765
:10341000B0F1C04000F073B890EA010F0CEAD1138C
:1034200048BF42F48072624538BF634504D280EAE7
:10343000010000F00040704710B500F01AF800BF1E
:103440008900013E00F007B800F009B85FEA410CBE
:103450005FEA1C6C08D080EA010000F050B85FEA17
:10346000400C5FEA1C6CF6D14FF00040A0F58000E4
:1034700070470EF1020E2EF0030E5EF8044B24424C
:1034800004D44FEA4102B2F17F4F11D84FEA400312
:10349000B3F17F4F0CD80ED14FEAD07CB2F17F4F01
:1034A0000CEB4C0C0CF1020C08BF4CEBD17C04E093
:1034B0004FF0080C01E04FEAD17C0CEB4C0324FAEE
:1034C00003F404F00704B4F1040C06D20EEB840CF0
:1034D000BDE810404CF0010C6047DFE80CF0070835
:1034E00002024FF00040A0F5800010BD08464200E7
:1034F00018BFD2F1807288BF00F0004010BDFF21DC
:1035000041EAD050C005704751EA000C00F1138029
:103510001CF5000F58BFBCF5000F01D48142704765
:1035200007D711F5000F58BF10F5000F15D48142D1
:103530007047894270471CF5000F04D5BCF5000F99
:10354000F7D5884270474FF0807C1CEB410F38BFA5
:103550001CEB400F01D28842704780EA010081EAEB
:10356000000180EA0100FFF7F8BE80F0004090EA19
:10357000010F7FF564AD81F0004100F008B8000054
:1035800090EA010F48BF81F000413FF558AD421A63
:1035900004D882F00042A0EB020011444FEAD0525E
:1035A0004FF07F4C1CEA410FA2EBD15318BF9CEAAD
:1035B000026F4AD04FF0004C4CEA00204CEA012147
:1035C00021FA03FCB0EB0C0C0FD412F0FE0F36D036
:1035D0005FEA4C001DD5001240EBC25038BF704767
:1035E0001CF03F0F18BF70470BE0A2F101025FEA29
:1035F0001C2040EBC25038BF70471CF07F0F18BF33
:103600007047C3F12003994014BF401E20F0010011
:10361000704780084FEA122308BF7047B0FA80FC59
:10362000A2EB0C02CCF1280C60FA0CF093EA122FFA
:1036300004BF00EBC25070474FEAC3707047130AD3
:103640005FEADC1008BF7047F6E79CEA026F04D01F
:1036500010EA5C0F08BF0020704710B5FFF709FFA4
:1036600040DFF63E81F00040704700008C360008D5
:1036700000000020180100006C010008A4370008B9
:103680001801002058030000880100082020202095
:10369000202000202020202020002020202020206A
:1036A000000000000000000000000000000000001A
:1036B000000000000000000000000000000000000A
:1036C00000000000000000000000000000000000FA
:1036D00000000000000000000000000000000000EA
:1036E000000000000000000000000000202020205A
:1036F000202000202020202020002020202020200A
:1037000000202020202020000000000000000000F9
:1037100000000000000000000000000000000000A9
:103720000000000000000000000000000000000099
:103730000000000000000000000000000000000089
:103740000000000000000000000000000000000079
:103750000000000000000000000000000000000069
:103760000000000000000000000000000000000059
:103770000100000000000000000000000000F00553
:103780000000000000000000000000000000000039
:1037900000000000010203040102030406070809F7
:0437A0000204060811
:04000005080001CF1F
:00000001FF
